{
  "_format": "hh-sol-artifact-1",
  "contractName": "WavePortal",
  "sourceName": "contracts/WavePortal.sol",
  "abi": [
    {
      "inputs": [],
      "stateMutability": "payable",
      "type": "constructor"
    },
    {
      "anonymous": false,
      "inputs": [
        {
          "indexed": true,
          "internalType": "address",
          "name": "from",
          "type": "address"
        },
        {
          "indexed": false,
          "internalType": "uint256",
          "name": "timestamp",
          "type": "uint256"
        },
        {
          "indexed": false,
          "internalType": "string",
          "name": "message",
          "type": "string"
        }
      ],
      "name": "NewWave",
      "type": "event"
    },
    {
      "inputs": [],
      "name": "getAllWaves",
      "outputs": [
        {
          "components": [
            {
              "internalType": "address",
              "name": "waver",
              "type": "address"
            },
            {
              "internalType": "string",
              "name": "message",
              "type": "string"
            },
            {
              "internalType": "uint256",
              "name": "timestamp",
              "type": "uint256"
            }
          ],
          "internalType": "struct WavePortal.Wave[]",
          "name": "",
          "type": "tuple[]"
        }
      ],
      "stateMutability": "view",
      "type": "function"
    },
    {
      "inputs": [],
      "name": "getTotalWaves",
      "outputs": [
        {
          "internalType": "uint256",
          "name": "",
          "type": "uint256"
        }
      ],
      "stateMutability": "view",
      "type": "function"
    },
    {
      "inputs": [
        {
          "internalType": "address",
          "name": "addr",
          "type": "address"
        }
      ],
      "name": "getWavesByAddress",
      "outputs": [
        {
          "internalType": "uint256",
          "name": "",
          "type": "uint256"
        }
      ],
      "stateMutability": "view",
      "type": "function"
    },
    {
      "inputs": [
        {
          "internalType": "address",
          "name": "",
          "type": "address"
        }
      ],
      "name": "lastWavedAt",
      "outputs": [
        {
          "internalType": "uint256",
          "name": "",
          "type": "uint256"
        }
      ],
      "stateMutability": "view",
      "type": "function"
    },
    {
      "inputs": [
        {
          "internalType": "string",
          "name": "_message",
          "type": "string"
        }
      ],
      "name": "wave",
      "outputs": [],
      "stateMutability": "nonpayable",
      "type": "function"
    }
  ],
  "bytecode": "0x608060405262000033604051806060016040528060258152602001620014bc602591396200003960201b6200072c1760201c565b620001cd565b620000d98160405160240162000050919062000146565b6040516020818303038152906040527f41304fac000000000000000000000000000000000000000000000000000000007bffffffffffffffffffffffffffffffffffffffffffffffffffffffff19166020820180517bffffffffffffffffffffffffffffffffffffffffffffffffffffffff8381831617835250505050620000dc60201b60201c565b50565b60008151905060006a636f6e736f6c652e6c6f679050602083016000808483855afa5050505050565b600062000112826200016a565b6200011e818562000175565b93506200013081856020860162000186565b6200013b81620001bc565b840191505092915050565b6000602082019050818103600083015262000162818462000105565b905092915050565b600081519050919050565b600082825260208201905092915050565b60005b83811015620001a657808201518184015260208101905062000189565b83811115620001b6576000848401525b50505050565b6000601f19601f8301169050919050565b6112df80620001dd6000396000f3fe608060405234801561001057600080fd5b50600436106100575760003560e01c8063449d46c01461005c5780636dfad43e146100785780639a2cdc08146100a8578063a42a4663146100c6578063bd43a908146100f6575b600080fd5b61007660048036038101906100719190610b1a565b610114565b005b610092600480360381019061008d9190610aed565b61052f565b60405161009f9190610ecd565b60405180910390f35b6100b0610578565b6040516100bd9190610ecd565b60405180910390f35b6100e060048036038101906100db9190610aed565b6105c3565b6040516100ed9190610ecd565b60405180910390f35b6100fe6105db565b60405161010b9190610d8b565b60405180910390f35b42610384600260003373ffffffffffffffffffffffffffffffffffffffff1673ffffffffffffffffffffffffffffffffffffffff168152602001908152602001600020546101629190610fdf565b106101a2576040517f08c379a000000000000000000000000000000000000000000000000000000000815260040161019990610ead565b60405180910390fd5b42600260003373ffffffffffffffffffffffffffffffffffffffff1673ffffffffffffffffffffffffffffffffffffffff1681526020019081526020016000208190555060016000808282546101f89190610fdf565b925050819055506001600360003373ffffffffffffffffffffffffffffffffffffffff1673ffffffffffffffffffffffffffffffffffffffff168152602001908152602001600020600082825461024f9190610fdf565b925050819055506102956040518060400160405280600d81526020017f2573206861732077617665642100000000000000000000000000000000000000815250336107c5565b6103146040518060400160405280601581526020017f2573206861732077617665642025732074696d6573000000000000000000000081525033600360003373ffffffffffffffffffffffffffffffffffffffff1673ffffffffffffffffffffffffffffffffffffffff16815260200190815260200160002054610861565b600160405180606001604052803373ffffffffffffffffffffffffffffffffffffffff16815260200183815260200142815250908060018154018082558091505060019003906000526020600020906003020160009091909190915060008201518160000160006101000a81548173ffffffffffffffffffffffffffffffffffffffff021916908373ffffffffffffffffffffffffffffffffffffffff16021790555060208201518160010190805190602001906103d39291906109c5565b506040820151816002015550503373ffffffffffffffffffffffffffffffffffffffff167f5f7e16dc676677766a70e9c5628aa6c54ddb8b6e5188e2ae1e1f17f1ffbea7164283604051610428929190610ee8565b60405180910390a26000655af3107a400090504781111561047e576040517f08c379a000000000000000000000000000000000000000000000000000000000815260040161047590610e6d565b60405180910390fd5b60003373ffffffffffffffffffffffffffffffffffffffff16826040516104a490610d76565b60006040518083038185875af1925050503d80600081146104e1576040519150601f19603f3d011682016040523d82523d6000602084013e6104e6565b606091505b505090508061052a576040517f08c379a000000000000000000000000000000000000000000000000000000000815260040161052190610e8d565b60405180910390fd5b505050565b6000600360008373ffffffffffffffffffffffffffffffffffffffff1673ffffffffffffffffffffffffffffffffffffffff168152602001908152602001600020549050919050565b60006105bb6040518060400160405280601681526020017f5765206861766520256420746f74616c20776176657300000000000000000000815250600054610900565b600054905090565b60026020528060005260406000206000915090505481565b60606001805480602002602001604051908101604052809291908181526020016000905b8282101561072357838290600052602060002090600302016040518060600160405290816000820160009054906101000a900473ffffffffffffffffffffffffffffffffffffffff1673ffffffffffffffffffffffffffffffffffffffff1673ffffffffffffffffffffffffffffffffffffffff168152602001600182018054610688906110b3565b80601f01602080910402602001604051908101604052809291908181526020018280546106b4906110b3565b80156107015780601f106106d657610100808354040283529160200191610701565b820191906000526020600020905b8154815290600101906020018083116106e457829003601f168201915b50505050508152602001600282015481525050815260200190600101906105ff565b50505050905090565b6107c2816040516024016107409190610dad565b6040516020818303038152906040527f41304fac000000000000000000000000000000000000000000000000000000007bffffffffffffffffffffffffffffffffffffffffffffffffffffffff19166020820180517bffffffffffffffffffffffffffffffffffffffffffffffffffffffff838183161783525050505061099c565b50565b61085d82826040516024016107db929190610dcf565b6040516020818303038152906040527f319af333000000000000000000000000000000000000000000000000000000007bffffffffffffffffffffffffffffffffffffffffffffffffffffffff19166020820180517bffffffffffffffffffffffffffffffffffffffffffffffffffffffff838183161783525050505061099c565b5050565b6108fb83838360405160240161087993929190610dff565b6040516020818303038152906040527f07c81217000000000000000000000000000000000000000000000000000000007bffffffffffffffffffffffffffffffffffffffffffffffffffffffff19166020820180517bffffffffffffffffffffffffffffffffffffffffffffffffffffffff838183161783525050505061099c565b505050565b6109988282604051602401610916929190610e3d565b6040516020818303038152906040527f9710a9d0000000000000000000000000000000000000000000000000000000007bffffffffffffffffffffffffffffffffffffffffffffffffffffffff19166020820180517bffffffffffffffffffffffffffffffffffffffffffffffffffffffff838183161783525050505061099c565b5050565b60008151905060006a636f6e736f6c652e6c6f679050602083016000808483855afa5050505050565b8280546109d1906110b3565b90600052602060002090601f0160209004810192826109f35760008555610a3a565b82601f10610a0c57805160ff1916838001178555610a3a565b82800160010185558215610a3a579182015b82811115610a39578251825591602001919060010190610a1e565b5b509050610a479190610a4b565b5090565b5b80821115610a64576000816000905550600101610a4c565b5090565b6000610a7b610a7684610f3d565b610f18565b905082815260208101848484011115610a9757610a966111a8565b5b610aa2848285611071565b509392505050565b600081359050610ab981611292565b92915050565b600082601f830112610ad457610ad36111a3565b5b8135610ae4848260208601610a68565b91505092915050565b600060208284031215610b0357610b026111b2565b5b6000610b1184828501610aaa565b91505092915050565b600060208284031215610b3057610b2f6111b2565b5b600082013567ffffffffffffffff811115610b4e57610b4d6111ad565b5b610b5a84828501610abf565b91505092915050565b6000610b6f8383610d08565b905092915050565b610b8081611035565b82525050565b610b8f81611035565b82525050565b6000610ba082610f7e565b610baa8185610fa1565b935083602082028501610bbc85610f6e565b8060005b85811015610bf85784840389528151610bd98582610b63565b9450610be483610f94565b925060208a01995050600181019050610bc0565b50829750879550505050505092915050565b6000610c1582610f89565b610c1f8185610fbd565b9350610c2f818560208601611080565b610c38816111b7565b840191505092915050565b6000610c4e82610f89565b610c588185610fce565b9350610c68818560208601611080565b610c71816111b7565b840191505092915050565b6000610c89603583610fce565b9150610c94826111c8565b604082019050919050565b6000610cac602783610fce565b9150610cb782611217565b604082019050919050565b6000610ccf600083610fb2565b9150610cda82611266565b600082019050919050565b6000610cf2600f83610fce565b9150610cfd82611269565b602082019050919050565b6000606083016000830151610d206000860182610b77565b5060208301518482036020860152610d388282610c0a565b9150506040830151610d4d6040860182610d58565b508091505092915050565b610d6181611067565b82525050565b610d7081611067565b82525050565b6000610d8182610cc2565b9150819050919050565b60006020820190508181036000830152610da58184610b95565b905092915050565b60006020820190508181036000830152610dc78184610c43565b905092915050565b60006040820190508181036000830152610de98185610c43565b9050610df86020830184610b86565b9392505050565b60006060820190508181036000830152610e198186610c43565b9050610e286020830185610b86565b610e356040830184610d67565b949350505050565b60006040820190508181036000830152610e578185610c43565b9050610e666020830184610d67565b9392505050565b60006020820190508181036000830152610e8681610c7c565b9050919050565b60006020820190508181036000830152610ea681610c9f565b9050919050565b60006020820190508181036000830152610ec681610ce5565b9050919050565b6000602082019050610ee26000830184610d67565b92915050565b6000604082019050610efd6000830185610d67565b8181036020830152610f0f8184610c43565b90509392505050565b6000610f22610f33565b9050610f2e82826110e5565b919050565b6000604051905090565b600067ffffffffffffffff821115610f5857610f57611174565b5b610f61826111b7565b9050602081019050919050565b6000819050602082019050919050565b600081519050919050565b600081519050919050565b6000602082019050919050565b600082825260208201905092915050565b600081905092915050565b600082825260208201905092915050565b600082825260208201905092915050565b6000610fea82611067565b9150610ff583611067565b9250827fffffffffffffffffffffffffffffffffffffffffffffffffffffffffffffffff0382111561102a57611029611116565b5b828201905092915050565b600061104082611047565b9050919050565b600073ffffffffffffffffffffffffffffffffffffffff82169050919050565b6000819050919050565b82818337600083830152505050565b60005b8381101561109e578082015181840152602081019050611083565b838111156110ad576000848401525b50505050565b600060028204905060018216806110cb57607f821691505b602082108114156110df576110de611145565b5b50919050565b6110ee826111b7565b810181811067ffffffffffffffff8211171561110d5761110c611174565b5b80604052505050565b7f4e487b7100000000000000000000000000000000000000000000000000000000600052601160045260246000fd5b7f4e487b7100000000000000000000000000000000000000000000000000000000600052602260045260246000fd5b7f4e487b7100000000000000000000000000000000000000000000000000000000600052604160045260246000fd5b600080fd5b600080fd5b600080fd5b600080fd5b6000601f19601f8301169050919050565b7f547279696e6720746f207769746864726177206d6f7265206d6f6e657920746860008201527f616e2074686520636f6e747261637420686f6c64730000000000000000000000602082015250565b7f4661696c656420746f207769746864726177206d6f6e65792066726f6d20636f60008201527f6e74726163742e00000000000000000000000000000000000000000000000000602082015250565b50565b7f77616974203135206d696e757465730000000000000000000000000000000000600082015250565b61129b81611035565b81146112a657600080fd5b5056fea2646970667358221220e7e03913e5c961865f2c9e24555041957dec4607afb621c1c6e091695693873f64736f6c63430008070033596f20796f2c204920616d206120636f6e747261637420616e64204920616d20736d617274",
  "linkReferences": {},
  "deployedLinkReferences": {}
}