{
  "_format": "hh-sol-artifact-1",
  "contractName": "MyEpicNFT",
  "sourceName": "contracts/MyEpicNFT.sol",
  "abi": [
    {
      "inputs": [],
      "stateMutability": "nonpayable",
      "type": "constructor"
    },
    {
      "anonymous": false,
      "inputs": [
        {
          "indexed": true,
          "internalType": "address",
          "name": "owner",
          "type": "address"
        },
        {
          "indexed": true,
          "internalType": "address",
          "name": "approved",
          "type": "address"
        },
        {
          "indexed": true,
          "internalType": "uint256",
          "name": "tokenId",
          "type": "uint256"
        }
      ],
      "name": "Approval",
      "type": "event"
    },
    {
      "anonymous": false,
      "inputs": [
        {
          "indexed": true,
          "internalType": "address",
          "name": "owner",
          "type": "address"
        },
        {
          "indexed": true,
          "internalType": "address",
          "name": "operator",
          "type": "address"
        },
        {
          "indexed": false,
          "internalType": "bool",
          "name": "approved",
          "type": "bool"
        }
      ],
      "name": "ApprovalForAll",
      "type": "event"
    },
    {
      "anonymous": false,
      "inputs": [
        {
          "indexed": false,
          "internalType": "address",
          "name": "sender",
          "type": "address"
        },
        {
          "indexed": false,
          "internalType": "uint256",
          "name": "tokenId",
          "type": "uint256"
        }
      ],
      "name": "NewEpicNFTMinted",
      "type": "event"
    },
    {
      "anonymous": false,
      "inputs": [
        {
          "indexed": true,
          "internalType": "address",
          "name": "from",
          "type": "address"
        },
        {
          "indexed": true,
          "internalType": "address",
          "name": "to",
          "type": "address"
        },
        {
          "indexed": true,
          "internalType": "uint256",
          "name": "tokenId",
          "type": "uint256"
        }
      ],
      "name": "Transfer",
      "type": "event"
    },
    {
      "inputs": [
        {
          "internalType": "address",
          "name": "to",
          "type": "address"
        },
        {
          "internalType": "uint256",
          "name": "tokenId",
          "type": "uint256"
        }
      ],
      "name": "approve",
      "outputs": [],
      "stateMutability": "nonpayable",
      "type": "function"
    },
    {
      "inputs": [
        {
          "internalType": "address",
          "name": "owner",
          "type": "address"
        }
      ],
      "name": "balanceOf",
      "outputs": [
        {
          "internalType": "uint256",
          "name": "",
          "type": "uint256"
        }
      ],
      "stateMutability": "view",
      "type": "function"
    },
    {
      "inputs": [
        {
          "internalType": "uint256",
          "name": "tokenId",
          "type": "uint256"
        }
      ],
      "name": "getApproved",
      "outputs": [
        {
          "internalType": "address",
          "name": "",
          "type": "address"
        }
      ],
      "stateMutability": "view",
      "type": "function"
    },
    {
      "inputs": [],
      "name": "getTokenId",
      "outputs": [
        {
          "internalType": "uint256",
          "name": "",
          "type": "uint256"
        }
      ],
      "stateMutability": "view",
      "type": "function"
    },
    {
      "inputs": [
        {
          "internalType": "address",
          "name": "owner",
          "type": "address"
        },
        {
          "internalType": "address",
          "name": "operator",
          "type": "address"
        }
      ],
      "name": "isApprovedForAll",
      "outputs": [
        {
          "internalType": "bool",
          "name": "",
          "type": "bool"
        }
      ],
      "stateMutability": "view",
      "type": "function"
    },
    {
      "inputs": [],
      "name": "makeAnEpicNFT",
      "outputs": [],
      "stateMutability": "nonpayable",
      "type": "function"
    },
    {
      "inputs": [],
      "name": "name",
      "outputs": [
        {
          "internalType": "string",
          "name": "",
          "type": "string"
        }
      ],
      "stateMutability": "view",
      "type": "function"
    },
    {
      "inputs": [
        {
          "internalType": "uint256",
          "name": "tokenId",
          "type": "uint256"
        }
      ],
      "name": "ownerOf",
      "outputs": [
        {
          "internalType": "address",
          "name": "",
          "type": "address"
        }
      ],
      "stateMutability": "view",
      "type": "function"
    },
    {
      "inputs": [
        {
          "internalType": "uint256",
          "name": "tokenId",
          "type": "uint256"
        }
      ],
      "name": "pickRandomColor",
      "outputs": [
        {
          "internalType": "string",
          "name": "",
          "type": "string"
        }
      ],
      "stateMutability": "view",
      "type": "function"
    },
    {
      "inputs": [
        {
          "internalType": "uint256",
          "name": "tokenId",
          "type": "uint256"
        }
      ],
      "name": "pickRandomFirstWord",
      "outputs": [
        {
          "internalType": "string",
          "name": "",
          "type": "string"
        }
      ],
      "stateMutability": "view",
      "type": "function"
    },
    {
      "inputs": [
        {
          "internalType": "uint256",
          "name": "tokenId",
          "type": "uint256"
        }
      ],
      "name": "pickRandomSecondWord",
      "outputs": [
        {
          "internalType": "string",
          "name": "",
          "type": "string"
        }
      ],
      "stateMutability": "view",
      "type": "function"
    },
    {
      "inputs": [
        {
          "internalType": "uint256",
          "name": "tokenId",
          "type": "uint256"
        }
      ],
      "name": "pickRandomThirdWord",
      "outputs": [
        {
          "internalType": "string",
          "name": "",
          "type": "string"
        }
      ],
      "stateMutability": "view",
      "type": "function"
    },
    {
      "inputs": [
        {
          "internalType": "address",
          "name": "from",
          "type": "address"
        },
        {
          "internalType": "address",
          "name": "to",
          "type": "address"
        },
        {
          "internalType": "uint256",
          "name": "tokenId",
          "type": "uint256"
        }
      ],
      "name": "safeTransferFrom",
      "outputs": [],
      "stateMutability": "nonpayable",
      "type": "function"
    },
    {
      "inputs": [
        {
          "internalType": "address",
          "name": "from",
          "type": "address"
        },
        {
          "internalType": "address",
          "name": "to",
          "type": "address"
        },
        {
          "internalType": "uint256",
          "name": "tokenId",
          "type": "uint256"
        },
        {
          "internalType": "bytes",
          "name": "_data",
          "type": "bytes"
        }
      ],
      "name": "safeTransferFrom",
      "outputs": [],
      "stateMutability": "nonpayable",
      "type": "function"
    },
    {
      "inputs": [
        {
          "internalType": "address",
          "name": "operator",
          "type": "address"
        },
        {
          "internalType": "bool",
          "name": "approved",
          "type": "bool"
        }
      ],
      "name": "setApprovalForAll",
      "outputs": [],
      "stateMutability": "nonpayable",
      "type": "function"
    },
    {
      "inputs": [
        {
          "internalType": "bytes4",
          "name": "interfaceId",
          "type": "bytes4"
        }
      ],
      "name": "supportsInterface",
      "outputs": [
        {
          "internalType": "bool",
          "name": "",
          "type": "bool"
        }
      ],
      "stateMutability": "view",
      "type": "function"
    },
    {
      "inputs": [],
      "name": "symbol",
      "outputs": [
        {
          "internalType": "string",
          "name": "",
          "type": "string"
        }
      ],
      "stateMutability": "view",
      "type": "function"
    },
    {
      "inputs": [
        {
          "internalType": "uint256",
          "name": "tokenId",
          "type": "uint256"
        }
      ],
      "name": "tokenURI",
      "outputs": [
        {
          "internalType": "string",
          "name": "",
          "type": "string"
        }
      ],
      "stateMutability": "view",
      "type": "function"
    },
    {
      "inputs": [
        {
          "internalType": "address",
          "name": "from",
          "type": "address"
        },
        {
          "internalType": "address",
          "name": "to",
          "type": "address"
        },
        {
          "internalType": "uint256",
          "name": "tokenId",
          "type": "uint256"
        }
      ],
      "name": "transferFrom",
      "outputs": [],
      "stateMutability": "nonpayable",
      "type": "function"
    }
  ],
  "bytecode": "0x608060405260405180610100016040528060d38152602001620046ee60d3913960089080519060200190620000369291906200082c565b50604051806080016040528060568152602001620047c16056913960099080519060200190620000689291906200082c565b506040518060c001604052806040518060400160405280600381526020017f47796d000000000000000000000000000000000000000000000000000000000081525081526020016040518060400160405280600781526020017f4b69746368656e0000000000000000000000000000000000000000000000000081525081526020016040518060400160405280600881526020017f42617468726f6f6d00000000000000000000000000000000000000000000000081525081526020016040518060400160405280600b81526020017f4c61756e647279726f6f6d00000000000000000000000000000000000000000081525081526020016040518060400160405280600781526020017f48616c6c7761790000000000000000000000000000000000000000000000000081525081526020016040518060400160405280600781526020017f426564726f6f6d00000000000000000000000000000000000000000000000000815250815250600a906006620001e6929190620008bd565b506040518060c001604052806040518060400160405280600681526020017f436865657365000000000000000000000000000000000000000000000000000081525081526020016040518060400160405280600581526020017f4170706c6500000000000000000000000000000000000000000000000000000081525081526020016040518060400160405280600581526020017f506173746100000000000000000000000000000000000000000000000000000081525081526020016040518060400160405280600381526020017f42756e000000000000000000000000000000000000000000000000000000000081525081526020016040518060400160405280600781526020017f436869636b656e0000000000000000000000000000000000000000000000000081525081526020016040518060400160405280600481526020017f4265656600000000000000000000000000000000000000000000000000000000815250815250600b90600662000364929190620008bd565b506040518060c001604052806040518060400160405280600381526020017f466174000000000000000000000000000000000000000000000000000000000081525081526020016040518060400160405280600581526020017f536d616c6c00000000000000000000000000000000000000000000000000000081525081526020016040518060400160405280600481526020017f54616c6c0000000000000000000000000000000000000000000000000000000081525081526020016040518060400160405280600381526020017f426967000000000000000000000000000000000000000000000000000000000081525081526020016040518060400160405280600581526020017f53686f727400000000000000000000000000000000000000000000000000000081525081526020016040518060400160405280600581526020017f46756e6e79000000000000000000000000000000000000000000000000000000815250815250600c906006620004e2929190620008bd565b506040518060c001604052806040518060400160405280600381526020017f726564000000000000000000000000000000000000000000000000000000000081525081526020016040518060400160405280600781526020017f233038433241380000000000000000000000000000000000000000000000000081525081526020016040518060400160405280600581526020017f626c61636b00000000000000000000000000000000000000000000000000000081525081526020016040518060400160405280600681526020017f79656c6c6f77000000000000000000000000000000000000000000000000000081525081526020016040518060400160405280600481526020017f626c75650000000000000000000000000000000000000000000000000000000081525081526020016040518060400160405280600581526020017f677265656e000000000000000000000000000000000000000000000000000000815250815250600d90600662000660929190620008bd565b503480156200066e57600080fd5b506040518060400160405280600981526020017f5371756172654e465400000000000000000000000000000000000000000000008152506040518060400160405280600681526020017f53515541524500000000000000000000000000000000000000000000000000008152508160009080519060200190620006f39291906200082c565b5080600190805190602001906200070c9291906200082c565b5050506200075a6040518060400160405280601e81526020017f54686973206973206d79204e465420636f6e74726163742e20576f61682100008152506200076060201b620012191760201c565b62000ade565b6200080081604051602401620007779190620009f2565b6040516020818303038152906040527f41304fac000000000000000000000000000000000000000000000000000000007bffffffffffffffffffffffffffffffffffffffffffffffffffffffff19166020820180517bffffffffffffffffffffffffffffffffffffffffffffffffffffffff83818316178352505050506200080360201b60201c565b50565b60008151905060006a636f6e736f6c652e6c6f679050602083016000808483855afa5050505050565b8280546200083a9062000a68565b90600052602060002090601f0160209004810192826200085e5760008555620008aa565b82601f106200087957805160ff1916838001178555620008aa565b82800160010185558215620008aa579182015b82811115620008a95782518255916020019190600101906200088c565b5b509050620008b9919062000924565b5090565b82805482825590600052602060002090810192821562000911579160200282015b8281111562000910578251829080519060200190620008ff9291906200082c565b5091602001919060010190620008de565b5b50905062000920919062000943565b5090565b5b808211156200093f57600081600090555060010162000925565b5090565b5b808211156200096757600081816200095d91906200096b565b5060010162000944565b5090565b508054620009799062000a68565b6000825580601f106200098d5750620009ae565b601f016020900490600052602060002090810190620009ad919062000924565b5b50565b6000620009be8262000a16565b620009ca818562000a21565b9350620009dc81856020860162000a32565b620009e78162000acd565b840191505092915050565b6000602082019050818103600083015262000a0e8184620009b1565b905092915050565b600081519050919050565b600082825260208201905092915050565b60005b8381101562000a5257808201518184015260208101905062000a35565b8381111562000a62576000848401525b50505050565b6000600282049050600182168062000a8157607f821691505b6020821081141562000a985762000a9762000a9e565b5b50919050565b7f4e487b7100000000000000000000000000000000000000000000000000000000600052602260045260246000fd5b6000601f19601f8301169050919050565b613c008062000aee6000396000f3fe608060405234801561001057600080fd5b50600436106101215760003560e01c80636352211e116100ad578063b88d4fde11610071578063b88d4fde14610340578063c575757a1461035c578063c87b56dd1461038c578063de9d132f146103bc578063e985e9c5146103c657610121565b80636352211e1461027657806370a08231146102a657806395d89b41146102d6578063a22cb465146102f4578063b187301f1461031057610121565b8063095ea7b3116100f4578063095ea7b3146101c257806323b872dd146101de5780632de38d68146101fa57806342842e0e1461022a578063514dc8c61461024657610121565b8063010a38f51461012657806301ffc9a71461014457806306fdde0314610174578063081812fc14610192575b600080fd5b61012e6103f6565b60405161013b9190612ffe565b60405180910390f35b61015e600480360381019061015991906125cb565b610407565b60405161016b9190612d63565b60405180910390f35b61017c6104e9565b6040516101899190612d7e565b60405180910390f35b6101ac60048036038101906101a79190612625565b61057b565b6040516101b99190612cd3565b60405180910390f35b6101dc60048036038101906101d7919061258b565b610600565b005b6101f860048036038101906101f39190612475565b610718565b005b610214600480360381019061020f9190612625565b610778565b6040516102219190612d7e565b60405180910390f35b610244600480360381019061023f9190612475565b610870565b005b610260600480360381019061025b9190612625565b610890565b60405161026d9190612d7e565b60405180910390f35b610290600480360381019061028b9190612625565b610988565b60405161029d9190612cd3565b60405180910390f35b6102c060048036038101906102bb9190612408565b610a3a565b6040516102cd9190612ffe565b60405180910390f35b6102de610af2565b6040516102eb9190612d7e565b60405180910390f35b61030e6004803603810190610309919061254b565b610b84565b005b61032a60048036038101906103259190612625565b610b9a565b6040516103379190612d7e565b60405180910390f35b61035a600480360381019061035591906124c8565b610c92565b005b61037660048036038101906103719190612625565b610cf4565b6040516103839190612d7e565b60405180910390f35b6103a660048036038101906103a19190612625565b610dec565b6040516103b39190612d7e565b60405180910390f35b6103c4610f3e565b005b6103e060048036038101906103db9190612435565b611185565b6040516103ed9190612d63565b60405180910390f35b600061040260076112b2565b905090565b60007f80ac58cd000000000000000000000000000000000000000000000000000000007bffffffffffffffffffffffffffffffffffffffffffffffffffffffff1916827bffffffffffffffffffffffffffffffffffffffffffffffffffffffff191614806104d257507f5b5e139f000000000000000000000000000000000000000000000000000000007bffffffffffffffffffffffffffffffffffffffffffffffffffffffff1916827bffffffffffffffffffffffffffffffffffffffffffffffffffffffff1916145b806104e257506104e1826112c0565b5b9050919050565b6060600080546104f890613292565b80601f016020809104026020016040519081016040528092919081815260200182805461052490613292565b80156105715780601f1061054657610100808354040283529160200191610571565b820191906000526020600020905b81548152906001019060200180831161055457829003601f168201915b5050505050905090565b60006105868261132a565b6105c5576040517f08c379a00000000000000000000000000000000000000000000000000000000081526004016105bc90612f3e565b60405180910390fd5b6004600083815260200190815260200160002060009054906101000a900473ffffffffffffffffffffffffffffffffffffffff169050919050565b600061060b82610988565b90508073ffffffffffffffffffffffffffffffffffffffff168373ffffffffffffffffffffffffffffffffffffffff16141561067c576040517f08c379a000000000000000000000000000000000000000000000000000000000815260040161067390612f9e565b60405180910390fd5b8073ffffffffffffffffffffffffffffffffffffffff1661069b611396565b73ffffffffffffffffffffffffffffffffffffffff1614806106ca57506106c9816106c4611396565b611185565b5b610709576040517f08c379a000000000000000000000000000000000000000000000000000000000815260040161070090612e7e565b60405180910390fd5b610713838361139e565b505050565b610729610723611396565b82611457565b610768576040517f08c379a000000000000000000000000000000000000000000000000000000000815260040161075f90612fde565b60405180910390fd5b610773838383611535565b505050565b606060006107ac61078884611791565b6040516020016107989190612c6d565b6040516020818303038152906040526118f2565b9050600a80549050816107bf919061333e565b9050600a81815481106107d5576107d46133fc565b5b9060005260206000200180546107ea90613292565b80601f016020809104026020016040519081016040528092919081815260200182805461081690613292565b80156108635780601f1061083857610100808354040283529160200191610863565b820191906000526020600020905b81548152906001019060200180831161084657829003601f168201915b5050505050915050919050565b61088b83838360405180602001604052806000815250610c92565b505050565b606060006108c46108a084611791565b6040516020016108b09190612cb1565b6040516020818303038152906040526118f2565b9050600d80549050816108d7919061333e565b9050600d81815481106108ed576108ec6133fc565b5b90600052602060002001805461090290613292565b80601f016020809104026020016040519081016040528092919081815260200182805461092e90613292565b801561097b5780601f106109505761010080835404028352916020019161097b565b820191906000526020600020905b81548152906001019060200180831161095e57829003601f168201915b5050505050915050919050565b6000806002600084815260200190815260200160002060009054906101000a900473ffffffffffffffffffffffffffffffffffffffff169050600073ffffffffffffffffffffffffffffffffffffffff168173ffffffffffffffffffffffffffffffffffffffff161415610a31576040517f08c379a0000000000000000000000000000000000000000000000000000000008152600401610a2890612ebe565b60405180910390fd5b80915050919050565b60008073ffffffffffffffffffffffffffffffffffffffff168273ffffffffffffffffffffffffffffffffffffffff161415610aab576040517f08c379a0000000000000000000000000000000000000000000000000000000008152600401610aa290612e9e565b60405180910390fd5b600360008373ffffffffffffffffffffffffffffffffffffffff1673ffffffffffffffffffffffffffffffffffffffff168152602001908152602001600020549050919050565b606060018054610b0190613292565b80601f0160208091040260200160405190810160405280929190818152602001828054610b2d90613292565b8015610b7a5780601f10610b4f57610100808354040283529160200191610b7a565b820191906000526020600020905b815481529060010190602001808311610b5d57829003601f168201915b5050505050905090565b610b96610b8f611396565b8383611925565b5050565b60606000610bce610baa84611791565b604051602001610bba9190612c06565b6040516020818303038152906040526118f2565b9050600b8054905081610be1919061333e565b9050600b8181548110610bf757610bf66133fc565b5b906000526020600020018054610c0c90613292565b80601f0160208091040260200160405190810160405280929190818152602001828054610c3890613292565b8015610c855780601f10610c5a57610100808354040283529160200191610c85565b820191906000526020600020905b815481529060010190602001808311610c6857829003601f168201915b5050505050915050919050565b610ca3610c9d611396565b83611457565b610ce2576040517f08c379a0000000000000000000000000000000000000000000000000000000008152600401610cd990612fde565b60405180910390fd5b610cee84848484611a92565b50505050565b60606000610d28610d0484611791565b604051602001610d149190612be4565b6040516020818303038152906040526118f2565b9050600c8054905081610d3b919061333e565b9050600c8181548110610d5157610d506133fc565b5b906000526020600020018054610d6690613292565b80601f0160208091040260200160405190810160405280929190818152602001828054610d9290613292565b8015610ddf5780601f10610db457610100808354040283529160200191610ddf565b820191906000526020600020905b815481529060010190602001808311610dc257829003601f168201915b5050505050915050919050565b6060610df78261132a565b610e36576040517f08c379a0000000000000000000000000000000000000000000000000000000008152600401610e2d90612f1e565b60405180910390fd5b6000600660008481526020019081526020016000208054610e5690613292565b80601f0160208091040260200160405190810160405280929190818152602001828054610e8290613292565b8015610ecf5780601f10610ea457610100808354040283529160200191610ecf565b820191906000526020600020905b815481529060010190602001808311610eb257829003601f168201915b505050505090506000610ee0611aee565b9050600081511415610ef6578192505050610f39565b600082511115610f2b578082604051602001610f13929190612b46565b60405160208183030381529060405292505050610f39565b610f3484611b05565b925050505b919050565b6032610f4a60076112b2565b1115610f8b576040517f08c379a0000000000000000000000000000000000000000000000000000000008152600401610f8290612fbe565b60405180910390fd5b6000610f9760076112b2565b90506000610fa482610778565b90506000610fb183610b9a565b90506000610fbe84610cf4565b90506000838383604051602001610fd793929190612b6a565b60405160208183030381529060405290506000610ff386610890565b905060006008826009856040516020016110109493929190612b9b565b604051602081830303815290604052905060006110558461103084611bac565b604051602001611041929190612c28565b604051602081830303815290604052611bac565b905060008160405160200161106a9190612c8f565b60405160208183030381529060405290506110b96040518060400160405280601581526020017f0a2d2d2d2d2d2d2d2d2d2d2d2d2d2d2d2d2d2d2d2d0000000000000000000000815250611219565b6110c281611219565b6111006040518060400160405280601581526020017f2d2d2d2d2d2d2d2d2d2d2d2d2d2d2d2d2d2d2d2d0a0000000000000000000000815250611219565b61110a338a611d44565b6111148982611d62565b61111e6007611dd6565b611141604051806060016040528060258152602001613b66602591398a33611dec565b7febb98688741ffa4c7589bf325de30cf7becb63de567842e1ccdb6cb949fdc82c338a604051611172929190612d3a565b60405180910390a1505050505050505050565b6000600560008473ffffffffffffffffffffffffffffffffffffffff1673ffffffffffffffffffffffffffffffffffffffff16815260200190815260200160002060008373ffffffffffffffffffffffffffffffffffffffff1673ffffffffffffffffffffffffffffffffffffffff16815260200190815260200160002060009054906101000a900460ff16905092915050565b6112af8160405160240161122d9190612d7e565b6040516020818303038152906040527f41304fac000000000000000000000000000000000000000000000000000000007bffffffffffffffffffffffffffffffffffffffffffffffffffffffff19166020820180517bffffffffffffffffffffffffffffffffffffffffffffffffffffffff8381831617835250505050611e8b565b50565b600081600001549050919050565b60007f01ffc9a7000000000000000000000000000000000000000000000000000000007bffffffffffffffffffffffffffffffffffffffffffffffffffffffff1916827bffffffffffffffffffffffffffffffffffffffffffffffffffffffff1916149050919050565b60008073ffffffffffffffffffffffffffffffffffffffff166002600084815260200190815260200160002060009054906101000a900473ffffffffffffffffffffffffffffffffffffffff1673ffffffffffffffffffffffffffffffffffffffff1614159050919050565b600033905090565b816004600083815260200190815260200160002060006101000a81548173ffffffffffffffffffffffffffffffffffffffff021916908373ffffffffffffffffffffffffffffffffffffffff160217905550808273ffffffffffffffffffffffffffffffffffffffff1661141183610988565b73ffffffffffffffffffffffffffffffffffffffff167f8c5be1e5ebec7d5bd14f71427d1e84f3dd0314c0f7b2291e5b200ac8c7c3b92560405160405180910390a45050565b60006114628261132a565b6114a1576040517f08c379a000000000000000000000000000000000000000000000000000000000815260040161149890612e5e565b60405180910390fd5b60006114ac83610988565b90508073ffffffffffffffffffffffffffffffffffffffff168473ffffffffffffffffffffffffffffffffffffffff16148061151b57508373ffffffffffffffffffffffffffffffffffffffff166115038461057b565b73ffffffffffffffffffffffffffffffffffffffff16145b8061152c575061152b8185611185565b5b91505092915050565b8273ffffffffffffffffffffffffffffffffffffffff1661155582610988565b73ffffffffffffffffffffffffffffffffffffffff16146115ab576040517f08c379a00000000000000000000000000000000000000000000000000000000081526004016115a290612f5e565b60405180910390fd5b600073ffffffffffffffffffffffffffffffffffffffff168273ffffffffffffffffffffffffffffffffffffffff16141561161b576040517f08c379a000000000000000000000000000000000000000000000000000000000815260040161161290612e1e565b60405180910390fd5b611626838383611eb4565b61163160008261139e565b6001600360008573ffffffffffffffffffffffffffffffffffffffff1673ffffffffffffffffffffffffffffffffffffffff168152602001908152602001600020600082825461168191906131a8565b925050819055506001600360008473ffffffffffffffffffffffffffffffffffffffff1673ffffffffffffffffffffffffffffffffffffffff16815260200190815260200160002060008282546116d891906130c7565b92505081905550816002600083815260200190815260200160002060006101000a81548173ffffffffffffffffffffffffffffffffffffffff021916908373ffffffffffffffffffffffffffffffffffffffff160217905550808273ffffffffffffffffffffffffffffffffffffffff168473ffffffffffffffffffffffffffffffffffffffff167fddf252ad1be2c89b69c2b068fc378daa952ba7f163c4a11628f55a4df523b3ef60405160405180910390a4505050565b606060008214156117d9576040518060400160405280600181526020017f300000000000000000000000000000000000000000000000000000000000000081525090506118ed565b600082905060005b6000821461180b5780806117f4906132f5565b915050600a82611804919061311d565b91506117e1565b60008167ffffffffffffffff8111156118275761182661342b565b5b6040519080825280601f01601f1916602001820160405280156118595781602001600182028036833780820191505090505b5090505b600085146118e65760018261187291906131a8565b9150600a85611881919061333e565b603061188d91906130c7565b60f81b8183815181106118a3576118a26133fc565b5b60200101907effffffffffffffffffffffffffffffffffffffffffffffffffffffffffffff1916908160001a905350600a856118df919061311d565b945061185d565b8093505050505b919050565b6000816040516020016119059190612b2f565b6040516020818303038152906040528051906020012060001c9050919050565b8173ffffffffffffffffffffffffffffffffffffffff168373ffffffffffffffffffffffffffffffffffffffff161415611994576040517f08c379a000000000000000000000000000000000000000000000000000000000815260040161198b90612e3e565b60405180910390fd5b80600560008573ffffffffffffffffffffffffffffffffffffffff1673ffffffffffffffffffffffffffffffffffffffff16815260200190815260200160002060008473ffffffffffffffffffffffffffffffffffffffff1673ffffffffffffffffffffffffffffffffffffffff16815260200190815260200160002060006101000a81548160ff0219169083151502179055508173ffffffffffffffffffffffffffffffffffffffff168373ffffffffffffffffffffffffffffffffffffffff167f17307eab39ab6107e8899845ad3d59bd9653f200f220920489ca2b5937696c3183604051611a859190612d63565b60405180910390a3505050565b611a9d848484611535565b611aa984848484611eb9565b611ae8576040517f08c379a0000000000000000000000000000000000000000000000000000000008152600401611adf90612dde565b60405180910390fd5b50505050565b606060405180602001604052806000815250905090565b6060611b108261132a565b611b4f576040517f08c379a0000000000000000000000000000000000000000000000000000000008152600401611b4690612f7e565b60405180910390fd5b6000611b59611aee565b90506000815111611b795760405180602001604052806000815250611ba4565b80611b8384611791565b604051602001611b94929190612b46565b6040516020818303038152906040525b915050919050565b60606000825190506000811415611bd55760405180602001604052806000815250915050611d3f565b60006003600283611be691906130c7565b611bf0919061311d565b6004611bfc919061314e565b90506000602082611c0d91906130c7565b67ffffffffffffffff811115611c2657611c2561342b565b5b6040519080825280601f01601f191660200182016040528015611c585781602001600182028036833780820191505090505b5090506000604051806060016040528060408152602001613b8b604091399050600181016020830160005b86811015611cfc5760038101905062ffffff818a015116603f8160121c168401518060081b905060ff603f83600c1c1686015116810190508060081b905060ff603f8360061c1686015116810190508060081b905060ff603f831686015116810190508060e01b90508084526004840193505050611c83565b506003860660018114611d165760028114611d2657611d31565b613d3d60f01b6002830352611d31565b603d60f81b60018303525b508484525050819450505050505b919050565b611d5e828260405180602001604052806000815250612050565b5050565b611d6b8261132a565b611daa576040517f08c379a0000000000000000000000000000000000000000000000000000000008152600401611da190612ede565b60405180910390fd5b80600660008481526020019081526020016000209080519060200190611dd192919061228c565b505050565b6001816000016000828254019250508190555050565b611e86838383604051602401611e0493929190612da0565b6040516020818303038152906040527fe3849f79000000000000000000000000000000000000000000000000000000007bffffffffffffffffffffffffffffffffffffffffffffffffffffffff19166020820180517bffffffffffffffffffffffffffffffffffffffffffffffffffffffff8381831617835250505050611e8b565b505050565b60008151905060006a636f6e736f6c652e6c6f679050602083016000808483855afa5050505050565b505050565b6000611eda8473ffffffffffffffffffffffffffffffffffffffff166120ab565b15612043578373ffffffffffffffffffffffffffffffffffffffff1663150b7a02611f03611396565b8786866040518563ffffffff1660e01b8152600401611f259493929190612cee565b602060405180830381600087803b158015611f3f57600080fd5b505af1925050508015611f7057506040513d601f19601f82011682018060405250810190611f6d91906125f8565b60015b611ff3573d8060008114611fa0576040519150601f19603f3d011682016040523d82523d6000602084013e611fa5565b606091505b50600081511415611feb576040517f08c379a0000000000000000000000000000000000000000000000000000000008152600401611fe290612dde565b60405180910390fd5b805181602001fd5b63150b7a0260e01b7bffffffffffffffffffffffffffffffffffffffffffffffffffffffff1916817bffffffffffffffffffffffffffffffffffffffffffffffffffffffff191614915050612048565b600190505b949350505050565b61205a83836120be565b6120676000848484611eb9565b6120a6576040517f08c379a000000000000000000000000000000000000000000000000000000000815260040161209d90612dde565b60405180910390fd5b505050565b600080823b905060008111915050919050565b600073ffffffffffffffffffffffffffffffffffffffff168273ffffffffffffffffffffffffffffffffffffffff16141561212e576040517f08c379a000000000000000000000000000000000000000000000000000000000815260040161212590612efe565b60405180910390fd5b6121378161132a565b15612177576040517f08c379a000000000000000000000000000000000000000000000000000000000815260040161216e90612dfe565b60405180910390fd5b61218360008383611eb4565b6001600360008473ffffffffffffffffffffffffffffffffffffffff1673ffffffffffffffffffffffffffffffffffffffff16815260200190815260200160002060008282546121d391906130c7565b92505081905550816002600083815260200190815260200160002060006101000a81548173ffffffffffffffffffffffffffffffffffffffff021916908373ffffffffffffffffffffffffffffffffffffffff160217905550808273ffffffffffffffffffffffffffffffffffffffff16600073ffffffffffffffffffffffffffffffffffffffff167fddf252ad1be2c89b69c2b068fc378daa952ba7f163c4a11628f55a4df523b3ef60405160405180910390a45050565b82805461229890613292565b90600052602060002090601f0160209004810192826122ba5760008555612301565b82601f106122d357805160ff1916838001178555612301565b82800160010185558215612301579182015b828111156123005782518255916020019190600101906122e5565b5b50905061230e9190612312565b5090565b5b8082111561232b576000816000905550600101612313565b5090565b600061234261233d8461303e565b613019565b90508281526020810184848401111561235e5761235d61345f565b5b612369848285613250565b509392505050565b60008135905061238081613b09565b92915050565b60008135905061239581613b20565b92915050565b6000813590506123aa81613b37565b92915050565b6000815190506123bf81613b37565b92915050565b600082601f8301126123da576123d961345a565b5b81356123ea84826020860161232f565b91505092915050565b60008135905061240281613b4e565b92915050565b60006020828403121561241e5761241d613469565b5b600061242c84828501612371565b91505092915050565b6000806040838503121561244c5761244b613469565b5b600061245a85828601612371565b925050602061246b85828601612371565b9150509250929050565b60008060006060848603121561248e5761248d613469565b5b600061249c86828701612371565b93505060206124ad86828701612371565b92505060406124be868287016123f3565b9150509250925092565b600080600080608085870312156124e2576124e1613469565b5b60006124f087828801612371565b945050602061250187828801612371565b9350506040612512878288016123f3565b925050606085013567ffffffffffffffff81111561253357612532613464565b5b61253f878288016123c5565b91505092959194509250565b6000806040838503121561256257612561613469565b5b600061257085828601612371565b925050602061258185828601612386565b9150509250929050565b600080604083850312156125a2576125a1613469565b5b60006125b085828601612371565b92505060206125c1858286016123f3565b9150509250929050565b6000602082840312156125e1576125e0613469565b5b60006125ef8482850161239b565b91505092915050565b60006020828403121561260e5761260d613469565b5b600061261c848285016123b0565b91505092915050565b60006020828403121561263b5761263a613469565b5b6000612649848285016123f3565b91505092915050565b61265b816131dc565b82525050565b61266a816131ee565b82525050565b600061267b82613084565b612685818561309a565b935061269581856020860161325f565b61269e8161346e565b840191505092915050565b60006126b48261308f565b6126be81856130ab565b93506126ce81856020860161325f565b6126d78161346e565b840191505092915050565b60006126ed8261308f565b6126f781856130bc565b935061270781856020860161325f565b80840191505092915050565b6000815461272081613292565b61272a81866130bc565b94506001821660008114612745576001811461275657612789565b60ff19831686528186019350612789565b61275f8561306f565b60005b8381101561278157815481890152600182019150602081019050612762565b838801955050505b50505092915050565b600061279f6032836130ab565b91506127aa8261347f565b604082019050919050565b60006127c2601c836130ab565b91506127cd826134ce565b602082019050919050565b60006127e5600a836130bc565b91506127f0826134f7565b600a82019050919050565b60006128086024836130ab565b915061281382613520565b604082019050919050565b600061282b6019836130ab565b91506128368261356f565b602082019050919050565b600061284e6063836130bc565b915061285982613598565b606382019050919050565b6000612871600b836130bc565b915061287c82613633565b600b82019050919050565b6000612894602c836130ab565b915061289f8261365c565b604082019050919050565b60006128b7600d836130bc565b91506128c2826136ab565b600d82019050919050565b60006128da6038836130ab565b91506128e5826136d4565b604082019050919050565b60006128fd602a836130ab565b915061290882613723565b604082019050919050565b60006129206029836130ab565b915061292b82613772565b604082019050919050565b6000612943602e836130ab565b915061294e826137c1565b604082019050919050565b60006129666002836130bc565b915061297182613810565b600282019050919050565b60006129896020836130ab565b915061299482613839565b602082019050919050565b60006129ac6031836130ab565b91506129b782613862565b604082019050919050565b60006129cf602c836130ab565b91506129da826138b1565b604082019050919050565b60006129f26029836130ab565b91506129fd82613900565b604082019050919050565b6000612a15602f836130ab565b9150612a208261394f565b604082019050919050565b6000612a38600a836130bc565b9150612a438261399e565b600a82019050919050565b6000612a5b6021836130ab565b9150612a66826139c7565b604082019050919050565b6000612a7e6014836130ab565b9150612a8982613a16565b602082019050919050565b6000612aa1600a836130bc565b9150612aac82613a3f565b600a82019050919050565b6000612ac4601d836130bc565b9150612acf82613a68565b601d82019050919050565b6000612ae76031836130ab565b9150612af282613a91565b604082019050919050565b6000612b0a6005836130bc565b9150612b1582613ae0565b600582019050919050565b612b2981613246565b82525050565b6000612b3b82846126e2565b915081905092915050565b6000612b5282856126e2565b9150612b5e82846126e2565b91508190509392505050565b6000612b7682866126e2565b9150612b8282856126e2565b9150612b8e82846126e2565b9150819050949350505050565b6000612ba78287612713565b9150612bb382866126e2565b9150612bbf8285612713565b9150612bcb82846126e2565b9150612bd6826128aa565b915081905095945050505050565b6000612bef826127d8565b9150612bfb82846126e2565b915081905092915050565b6000612c1182612864565b9150612c1d82846126e2565b915081905092915050565b6000612c3382612a2b565b9150612c3f82856126e2565b9150612c4a82612841565b9150612c5682846126e2565b9150612c6182612959565b91508190509392505050565b6000612c7882612a94565b9150612c8482846126e2565b915081905092915050565b6000612c9a82612ab7565b9150612ca682846126e2565b915081905092915050565b6000612cbc82612afd565b9150612cc882846126e2565b915081905092915050565b6000602082019050612ce86000830184612652565b92915050565b6000608082019050612d036000830187612652565b612d106020830186612652565b612d1d6040830185612b20565b8181036060830152612d2f8184612670565b905095945050505050565b6000604082019050612d4f6000830185612652565b612d5c6020830184612b20565b9392505050565b6000602082019050612d786000830184612661565b92915050565b60006020820190508181036000830152612d9881846126a9565b905092915050565b60006060820190508181036000830152612dba81866126a9565b9050612dc96020830185612b20565b612dd66040830184612652565b949350505050565b60006020820190508181036000830152612df781612792565b9050919050565b60006020820190508181036000830152612e17816127b5565b9050919050565b60006020820190508181036000830152612e37816127fb565b9050919050565b60006020820190508181036000830152612e578161281e565b9050919050565b60006020820190508181036000830152612e7781612887565b9050919050565b60006020820190508181036000830152612e97816128cd565b9050919050565b60006020820190508181036000830152612eb7816128f0565b9050919050565b60006020820190508181036000830152612ed781612913565b9050919050565b60006020820190508181036000830152612ef781612936565b9050919050565b60006020820190508181036000830152612f178161297c565b9050919050565b60006020820190508181036000830152612f378161299f565b9050919050565b60006020820190508181036000830152612f57816129c2565b9050919050565b60006020820190508181036000830152612f77816129e5565b9050919050565b60006020820190508181036000830152612f9781612a08565b9050919050565b60006020820190508181036000830152612fb781612a4e565b9050919050565b60006020820190508181036000830152612fd781612a71565b9050919050565b60006020820190508181036000830152612ff781612ada565b9050919050565b60006020820190506130136000830184612b20565b92915050565b6000613023613034565b905061302f82826132c4565b919050565b6000604051905090565b600067ffffffffffffffff8211156130595761305861342b565b5b6130628261346e565b9050602081019050919050565b60008190508160005260206000209050919050565b600081519050919050565b600081519050919050565b600082825260208201905092915050565b600082825260208201905092915050565b600081905092915050565b60006130d282613246565b91506130dd83613246565b9250827fffffffffffffffffffffffffffffffffffffffffffffffffffffffffffffffff038211156131125761311161336f565b5b828201905092915050565b600061312882613246565b915061313383613246565b9250826131435761314261339e565b5b828204905092915050565b600061315982613246565b915061316483613246565b9250817fffffffffffffffffffffffffffffffffffffffffffffffffffffffffffffffff048311821515161561319d5761319c61336f565b5b828202905092915050565b60006131b382613246565b91506131be83613246565b9250828210156131d1576131d061336f565b5b828203905092915050565b60006131e782613226565b9050919050565b60008115159050919050565b60007fffffffff0000000000000000000000000000000000000000000000000000000082169050919050565b600073ffffffffffffffffffffffffffffffffffffffff82169050919050565b6000819050919050565b82818337600083830152505050565b60005b8381101561327d578082015181840152602081019050613262565b8381111561328c576000848401525b50505050565b600060028204905060018216806132aa57607f821691505b602082108114156132be576132bd6133cd565b5b50919050565b6132cd8261346e565b810181811067ffffffffffffffff821117156132ec576132eb61342b565b5b80604052505050565b600061330082613246565b91507fffffffffffffffffffffffffffffffffffffffffffffffffffffffffffffffff8214156133335761333261336f565b5b600182019050919050565b600061334982613246565b915061335483613246565b9250826133645761336361339e565b5b828206905092915050565b7f4e487b7100000000000000000000000000000000000000000000000000000000600052601160045260246000fd5b7f4e487b7100000000000000000000000000000000000000000000000000000000600052601260045260246000fd5b7f4e487b7100000000000000000000000000000000000000000000000000000000600052602260045260246000fd5b7f4e487b7100000000000000000000000000000000000000000000000000000000600052603260045260246000fd5b7f4e487b7100000000000000000000000000000000000000000000000000000000600052604160045260246000fd5b600080fd5b600080fd5b600080fd5b600080fd5b6000601f19601f8301169050919050565b7f4552433732313a207472616e7366657220746f206e6f6e20455243373231526560008201527f63656976657220696d706c656d656e7465720000000000000000000000000000602082015250565b7f4552433732313a20746f6b656e20616c7265616479206d696e74656400000000600082015250565b7f54484952445f574f524400000000000000000000000000000000000000000000600082015250565b7f4552433732313a207472616e7366657220746f20746865207a65726f2061646460008201527f7265737300000000000000000000000000000000000000000000000000000000602082015250565b7f4552433732313a20617070726f766520746f2063616c6c657200000000000000600082015250565b7f222c20226465736372697074696f6e223a20224120686967686c79206163636c60008201527f61696d656420636f6c6c656374696f6e206f6620737175617265732e222c202260208201527f696d616765223a2022646174613a696d6167652f7376672b786d6c3b6261736560408201527f36342c0000000000000000000000000000000000000000000000000000000000606082015250565b7f5345434f4e445f574f5244000000000000000000000000000000000000000000600082015250565b7f4552433732313a206f70657261746f7220717565727920666f72206e6f6e657860008201527f697374656e7420746f6b656e0000000000000000000000000000000000000000602082015250565b7f3c2f746578743e3c2f7376673e00000000000000000000000000000000000000600082015250565b7f4552433732313a20617070726f76652063616c6c6572206973206e6f74206f7760008201527f6e6572206e6f7220617070726f76656420666f7220616c6c0000000000000000602082015250565b7f4552433732313a2062616c616e636520717565727920666f7220746865207a6560008201527f726f206164647265737300000000000000000000000000000000000000000000602082015250565b7f4552433732313a206f776e657220717565727920666f72206e6f6e657869737460008201527f656e7420746f6b656e0000000000000000000000000000000000000000000000602082015250565b7f45524337323155524953746f726167653a2055524920736574206f66206e6f6e60008201527f6578697374656e7420746f6b656e000000000000000000000000000000000000602082015250565b7f227d000000000000000000000000000000000000000000000000000000000000600082015250565b7f4552433732313a206d696e7420746f20746865207a65726f2061646472657373600082015250565b7f45524337323155524953746f726167653a2055524920717565727920666f722060008201527f6e6f6e6578697374656e7420746f6b656e000000000000000000000000000000602082015250565b7f4552433732313a20617070726f76656420717565727920666f72206e6f6e657860008201527f697374656e7420746f6b656e0000000000000000000000000000000000000000602082015250565b7f4552433732313a207472616e73666572206f6620746f6b656e2074686174206960008201527f73206e6f74206f776e0000000000000000000000000000000000000000000000602082015250565b7f4552433732314d657461646174613a2055524920717565727920666f72206e6f60008201527f6e6578697374656e7420746f6b656e0000000000000000000000000000000000602082015250565b7f7b226e616d65223a202200000000000000000000000000000000000000000000600082015250565b7f4552433732313a20617070726f76616c20746f2063757272656e74206f776e6560008201527f7200000000000000000000000000000000000000000000000000000000000000602082015250565b7f4f6e6c79203530204e46547320616c6c6f776564000000000000000000000000600082015250565b7f46495253545f574f524400000000000000000000000000000000000000000000600082015250565b7f646174613a6170706c69636174696f6e2f6a736f6e3b6261736536342c000000600082015250565b7f4552433732313a207472616e736665722063616c6c6572206973206e6f74206f60008201527f776e6572206e6f7220617070726f766564000000000000000000000000000000602082015250565b7f434f4c4f52000000000000000000000000000000000000000000000000000000600082015250565b613b12816131dc565b8114613b1d57600080fd5b50565b613b29816131ee565b8114613b3457600080fd5b50565b613b40816131fa565b8114613b4b57600080fd5b50565b613b5781613246565b8114613b6257600080fd5b5056fe416e204e465420772f20494420257320686173206265656e206d696e74656420746f2025734142434445464748494a4b4c4d4e4f505152535455565758595a6162636465666768696a6b6c6d6e6f707172737475767778797a303132333435363738392b2fa2646970667358221220ec82d14eccd4dcc94d808dcb3d84a77865217220796b7efb6be9c79fc99efa7064736f6c634300080700333c73766720786d6c6e733d27687474703a2f2f7777772e77332e6f72672f323030302f73766727207072657365727665417370656374526174696f3d27784d696e594d696e206d656574272076696577426f783d273020302033353020333530273e3c7374796c653e2e62617365207b2066696c6c3a2077686974653b20666f6e742d66616d696c793a2073657269663b20666f6e742d73697a653a20323470783b207d3c2f7374796c653e3c726563742077696474683d273130302527206865696768743d2731303025272066696c6c3d27272f3e3c7465787420783d273530252720793d273530252720636c6173733d27626173652720646f6d696e616e742d626173656c696e653d276d6964646c652720746578742d616e63686f723d276d6964646c65273e",
  "linkReferences": {},
  "deployedLinkReferences": {}
}